:100000000C9404010C942C010C942C010C942C01E4
:100010000C942C010C942C010C942C010C942C01AC
:100020000C942C010C942C010C94D20D0C94410EC8
:100030000C942C010C942C010C942C010C942C018C
:100040000C942C010C942C010C942C010C942C017C
:100050000C942C010C942C010C942C010C94880D04
:100060000C942C010C942C010C942C010C942C015C
:100070000C942C010C942C010C942C010C942C014C
:100080000C942C010C942C010C942C010C942C013C
:100090000C9473100C942C010C942C010C942C01D6
:1000A0000C942C010C942C010C942C0107060504D3
:1000B0000100080A0B0C0D09080B000202020000E7
:1000C00009040000010202000005240010010524BB
:1000D000010101042402060524060001070581032D
:1000E00010004009040100020A0000000705020296
:1000F00040000007058302400000040309041201C8
:100100000002EF0201406F2531C600010102030128
:10011000556E6B6E6F776E0053706163656D6F75B2
:100120007365204D6963726F000000000024002792
:10013000002A002D00300005010908A101A1008559
:100140000116008026FF7F36008046FF7F093009B8
:10015000310932751095038102C0A1008502160095
:100160008026FF7F36008046FF7F0933093409353A
:10017000751095038102C0A1008503150025017546
:100180000195200509190129208102C0C000000045
:10019000002300260029002C002F0000000000256D
:1001A0000028002B002E0031000404040404030482
:1001B0000502020202040302020202060606060605
:1001C00006040402020204040408020110408040F4
:1001D000102040804080080204018040201002016D
:1001E000108010204040200000000200090F000095
:1001F000030401000C0000000000000000000000EB
:10020000000000000000921111241FBECFEFDAE0C1
:10021000DEBFCDBF12E0A0E0B1E0E4E1F4E302C054
:1002200005900D92AA35B107D9F724E0AAE5B2E00E
:1002300001C01D92A831B207E1F711E0C4E0D1E09E
:1002400004C02197FE010E94EE19C330D107C9F7FF
:100250000E94C1110C94081A0C9400004F925F92F6
:100260006F927F928F929F92AF92BF92CF92DF92C6
:10027000EF92FF92CF93DF932B013C017A01E901CA
:10028000BA01550F880B990B0E94B3184B015C0102
:1002900080914203CC0FDD1FCC0FDD1F811116C0F2
:1002A000CA5CDC4F88829982AA82BB82C701DF9137
:1002B000CF91FF90EF90DF90CF90BF90AF909F9045
:1002C0008F907F906F905F904F90089520E030E086
:1002D00040EC50E4C301B2010E9468192CEE31E5F4
:1002E00048E75FE30E9468196B017C0120E832EC6B
:1002F00045EF5CE3C501B4010E9468199B01AC01A4
:10030000C701B6010E9498176B017C01CA5CDC4FE3
:10031000C882D982EA82FB8220E030E04AEF53E4CF
:100320000E946319181684F020E030E04AEF53EC85
:10033000C701B6010E94041887FD0DC0C701B601B0
:100340000E947B187B01B2CFC12CD12C9AEFE92EF1
:1003500093E4F92EF3CFC12CD12C8AEFE82E83EC55
:10036000F82EECCFFC0180913503882311F13FB7C3
:10037000F89482E08093E9002091F200822F90E0CF
:100380001816190614F481E090E0882339F0289AB1
:1003900044E6409334034091F1004083222339F036
:1003A0002091F200211103C02BE62093E8003FBF0B
:1003B00008958FEF9FEF089581508F3008F047C068
:1003C000E82FF0E0EA51FE4F0C94EE190302070209
:1003D000F501FB01FF012702270227020A02100292
:1003E000140218021E0227022202809180008F77D9
:1003F000809380000895809180008F7DF9CF809157
:100400008000877FF5CF84B58F7784BD089584B54C
:100410008F7DFBCF809190008F778093900008951F
:10042000809190008F7DF9CF80919000877FF5CFEC
:100430008091C0008F778093C00008958091C000A4
:100440008F7DF9CF8091C200877F8093C20008958D
:100450001F93CF93DF93282F30E0F901E951FE4F2E
:100460008491F901E853FE4FD491F901E755FE4F0D
:10047000C491CC23A9F0162F81110E94DC01EC2F2E
:10048000F0E0EE0FFF1FE556FE4FA591B4918FB738
:10049000F894EC91111108C0D095DE23DC938FBF46
:1004A000DF91CF911F910895DE2BF8CF3FB7F894DD
:1004B0008091300390913103A0913203B0913303C6
:1004C00026B5A89B05C02F3F19F00196A11DB11DAF
:1004D0003FBFBA2FA92F982F8827BC01CD01620FEB
:1004E000711D811D911D42E0660F771F881F991FA6
:1004F0004A95D1F708958F929F92AF92BF92CF9273
:10050000DF92EF92FF924B015C010E9456026B0159
:100510007C010E9456026C197D098E099F09683E74
:10052000734081059105A8F321E0821A9108A10882
:10053000B10888EEC80E83E0D81EE11CF11C8114BE
:100540009104A104B10429F7FF90EF90DF90CF90C0
:10055000BF90AF909F908F90089508950895409117
:10056000E6025091E7022091E4023091E502421741
:100570005307B4F49091E8009570E1F39091E8008E
:1005800092FD19C08093F1008091E6029091E702FC
:1005900001968F739927892B19F48EEF8093E800C9
:1005A0008091E6029091E70201969093E702809392
:1005B000E60281E0089580E00895EF92FF920F93A4
:1005C0001F93CF93DF93F82E192FE62E042F81E08F
:1005D000860F880F0E94AF0283E00E94AF02CF2DEA
:1005E000D12FEC0EFD2EF11CCE15DF05B9F007FF63
:1005F00013C0FE0184910E94AF02182F80E00E9478
:10060000AF02812321968111EFCFDF91CF911F910E
:100610000F91FF90EF9008958881EDCF81E0F5CFA5
:10062000DF92EF92FF920F931F93CF93DF93D82E19
:100630008A01EB017B01E40EF51ECE15DF0559F0B2
:10064000D7FE12C0FE0184910E94AF022196811153
:10065000F4CF0FEF1FEFC801DF91CF911F910F91E2
:10066000FF90EF90DF9008958881EECF2FB7F89438
:1006700087708093E9009091E800892F807295FF40
:1006800004C09091F20080E4891B2FBF08957F92EF
:100690008F929F92AF92BF92CF92DF92EF92FF9292
:1006A0000F931F93CF93DF93C82E8B017A01809114
:1006B0003503811110C08FEF9FEFDF91CF911F9114
:1006C0000F91FF90EF90DF90CF90BF90AF909F90F1
:1006D0008F907F9008958091EA0280FF05C08091FD
:1006E000E00082608093E000CE2DDF2DD12C8AEFD8
:1006F000B82E8C2D8770982E8C2D8072882E8C2D84
:100700008074782E9AE3A92E209719F4DD2009F43D
:1007100052C08C2D0E94360381110AC0BA94BB20AE
:1007200051F261E070E080E090E00E947B02ECCF4B
:100730008C171D0611F00CF08C2F9FB7F894909237
:10074000E9002091E80025FD02C09FBFDDCF282FE2
:1007500030E0C21BD30B882029F08150A0F010920A
:10076000F100FBCFF801C7FC0AC0815050F0419165
:100770004093F100FACF44914093F10031968150BB
:10078000D0F7020F131FDD2021F0A092E800D12C3A
:10079000DCCF8091E80085FD07C0A092E800DD2451
:1007A000D394209791F2F3CF209779F6772069F2CE
:1007B000A092E800CACF5D9A84E68093E902C7015F
:1007C0007CCF615030F02091F100FC012083019634
:1007D000F8CF289A84E68093340308958091DC0250
:1007E00081110DC082E08093D80284E08093D90209
:1007F0001092DB021092DA0281E08093DC0288ED35
:1008000092E008950F931F93CF93DF931F92CDB77C
:10081000DEB782E0898342E450E068EB70E080E874
:100820000E9410030E94EE03DC0112960D911C91B0
:100830000115110589F0D801ED91FC910280F38139
:10084000E02DBE016F5F7F4FC801099597FD04C081
:10085000F80100851185ECCF89810F90DF91CF9150
:100860001F910F910895CF93DF93EC0180911201B6
:10087000882331F083E00E9447031816190634F0EC
:1008800081E090E09B838A8380E090E0DF91CF91CC
:100890000895CF93DF931F92CDB7DEB76983DC0154
:1008A000ED91FC910280F381E02D41E050E0BE012A
:1008B0006F5F7F4F09950F90DF91CF91089583E08F
:1008C0008093E9008091F200882319F08AE38093F5
:1008D000E800089583E00E94360390E00895CF93E6
:1008E000DF931F92CDB7DEB7FC018485958597FD18
:1008F00008C02FEF3FEF358724870F90DF91CF910E
:100900000895CE0101960E94B201019719F48981E0
:1009100090E0F3CF8FEF9FEFF0CF0F931F93CF9324
:10092000DF931F92CDB7DEB78C01FC0184859585DE
:1009300097FF0BC0CE0101960E94B201019771F49E
:10094000898190E0F80195878487F80184859585F1
:100950000F90DF91CF911F910F9108958FEF9FEF2F
:10096000F1CFFC018485958597FD0BC09FB7F89466
:1009700082E08093E9008091F2009FBF90E00196B1
:1009800008959FB7F89482E08093E9008091F20087
:100990009FBF90E0089520919502260F3327331FC3
:1009A00021323105ECF420916903FC0190E080E0F4
:1009B000243069F082E00895A09195022191AC0164
:1009C0004B585D4FA40FB52FB11D2C930196861780
:1009D00098F380919502680F6093950280E00895E6
:1009E00081E008951092690381E08093680310927A
:1009F000430361E082E00E94280261E083E00E94FC
:100A00002802E9EBF0E080818E7F808380818D7FFA
:100A1000808388E48093B80085E48093BC000895C7
:100A2000CF93DF9391E0909374028823B9F0C09143
:100A3000B800D091BA008091BC008A7B8093BC0042
:100A400060E082E00E94280260E083E00E942802C9
:100A50000E94F204D093BA00C093B800DF91CF9106
:100A600008958F929F92AF92BF92CF92DF92EF92B2
:100A7000FF920F931F93CF93DF93D0919203D132C4
:100A800008F0D7C0182FC09191030E9456026B0145
:100A90007C018091690381116BC082E080936903BE
:100AA000109368038FEF8093670310926603D093CF
:100AB0006503A1E7B3E0E5E4F3E080E0D81391C07B
:100AC0001092440380914403CC0FC82BC09344037D
:100AD00080914303813009F088C0109243030E9443
:100AE00056026B017C01809144038093BB0080918E
:100AF0006B0390916C03A0916D03B0916E03892BF1
:100B00008A2B8B2BA1F00E94560200916B0310914F
:100B10006C0320916D0330916E036C197D098E0971
:100B20009F09061717072807390708F442C0809164
:100B3000BC0083FDD8CF85EC8093BC000E94560298
:100B40006B017C0180916903823009F450C080916F
:100B500067038F3F09F46FC080916703803209F407
:100B60006CC080916703803309F469C084E026C0BB
:100B700080916B0390916C03A0916D03B0916E0313
:100B8000892B8A2B8B2B09F484CF0E9456028090EC
:100B90006B0390906C03A0906D03B0906E036C1982
:100BA0007D098E099F0986169706A806B90608F0E2
:100BB00070CF80916A030E94100585E01092700347
:100BC0001092920310926F03DF91CF911F910F91BA
:100BD000FF90EF90DF90CF90BF90AF909F908F905D
:100BE00008959D9191938F5F69CF85EEA5CF8091F8
:100BF0006B0390916C03A0916D03B0916E03892BF0
:100C00008A2B8B2B09F49ECF0E94560200916B0316
:100C100010916C0320916D0330916E036C197D0966
:100C20008E099F09061717072807390708F08ACF8A
:100C3000C0CF81E0C3CF80E0C1CF82E0BFCF83E0EF
:100C4000BDCF0F931F93CF93DF938A01E9012097C4
:100C500011F4C3EED3E091E090936F03809391037E
:100C60001092700310929203E881F9810190F08153
:100C7000E02DCE010995E881F9810190F081E02D08
:100C8000D8016C91CE01099581E00E94310591E077
:100C9000811190E0892FDF91CF911F910F910895DD
:100CA0000895E091F1028091F002E81730F4F0E04D
:100CB000E854FD4F808190E008958FEF9FEF0895F5
:100CC0009091F1028091F0022FEF3FEF981748F4D6
:100CD000E92FF0E0E854FD4F208130E09F5F9093D2
:100CE000F102C90108958091F0029091F102891BEF
:100CF000990B0895CF92DF92EF92FF920F931F937B
:100D0000CF93DF937C01CB018A0120916F032223D3
:100D100089F0EB016B01C40ED51ECC15DD0569F021
:100D20006991D701ED91FC910190F081E02DC7010F
:100D30000995F3CF642F0E94CB04C801DF91CF91B6
:100D40001F910F91FF90EF90DF90CF900895CF9378
:100D5000DF931F92CDB7DEB7698320916F03222303
:100D6000F9F020919203203258F021E030E0FC01AC
:100D70003383228390E080E00F90DF91CF9108953C
:100D800080917003E82FF0E0EF58FC4F9981908339
:100D90008F5F809370038093920381E090E0ECCFAB
:100DA00061E0CE0101960E94CB04F7CF90E080E095
:100DB0000895DC01FB0112962C9112978481958194
:100DC0002817190641F491818081813A31F49D7F81
:100DD00081E0913009F080E008958132E1F79B30A5
:100DE00029F482811F968C9381E008959A3099F7B7
:100DF000828150968C93F8CFAF92BF92CF92DF92C0
:100E0000EF92FF920F931F93CF93DF931F92CDB773
:100E1000DEB77C0169836A01590141E050E0BE01FF
:100E20006F5F7F4FFC0183810E9447038C0197FD18
:100E30000BC0F7018381A501B60180640E944703BE
:100E4000080F191F97FD8C01C8010F90DF91CF91FA
:100E50001F910F91FF90EF90DF90CF90BF90AF90D8
:100E60000895DC01FB0188E4808389E4818384E4C4
:100E700082831D969C911D979F709F5B93831D9607
:100E80008D919C9124E0969587952A95E1F78F7036
:100E90008F5B848385E00895EF92FF920F931F93F9
:100EA000CF93DF93FB012081213871F5238122321A
:100EB00059F5DC0112964C912481358142171306B5
:100EC00019F5EC010B851C85F12CE12C01151105A0
:100ED00089F0F801448155816281738180E80E9424
:100EE00010038F3F980749F0E80EF91ED8010D91C5
:100EF0001C91ECCF81E08F87C701DF91CF911F91CB
:100F00000F91FF90EF90089590E080E0F6CFCF939F
:100F1000DF93CDB7DEB769970FB6F894DEBF0FBE8B
:100F2000CDBFFC01DB018C918F5F8C939E012D5F07
:100F30003F4F8DE0D9011D928A95E9F729E0298379
:100F400084E08A8391E09D8383E08E832A8721E277
:100F50002B879C879D879F8722E2288B27E02B8BFE
:100F600025E02C8B8E8B20E430E0388F2F8B998FEF
:100F700082818B8395858685998B8A8B8381806816
:100F80008D8B49E150E0BE016F5F7F4F80E00E9492
:100F9000100369960FB6F894DEBF0FBECDBFDF9188
:100FA000CF910895CF93DF9380916C02811167C038
:100FB00081E080935F028093600225E632E0309307
:100FC000620220936102109264021092630228E28E
:100FD00031E030935C0220935B0210926702109222
:100FE0006602109269021092680280936A028093EE
:100FF0006B0281EC809365020E94EE03FC0181810B
:1010000090915F02482F490F5527551F48305105D1
:101010009CF5A281B381109709F52BE532E033836B
:101020002283208120935D0280935E028091600282
:10103000820F808320916102A22FB09162028A2FD9
:10104000821B8917C8F481813D91C82FD0E0C05020
:10105000DF4F38838F5F8183F2CFD90118962D91AE
:101060003C91199721153105C1F72BE532E019960E
:101070003C932E931897D5CF81E080936C028BE53B
:1010800092E0DF91CF910895CF93DF93C4E1D1E057
:10109000DC019C01205F3F4FE8812296E23108F09D
:1010A000E251F0E0E455FF4FE49180917B009E2FE8
:1010B000990F990F90728F7D982B90937B00809160
:1010C000130140E4849FC0011124E770E82BE093F2
:1010D0007C0080917A00806480937A0080917A000D
:1010E00086FDFCCF80917800909179008D939D933F
:1010F000A217B30789F6DF91CF910895FC01019003
:101100000020E9F73197AF01481B590BBC0183E977
:1011100093E00C9433048F929F92AF92BF920F93FF
:101120001F93CF93DF93CDB7DEB7A1970FB6F89497
:10113000DEBF0FBECDBF19A2423008F44AE08E01D7
:101140000F5D1F4F842E912CB12CA12CA501940171
:101150000E947517E62FB901CA01EA30F4F4E05D88
:10116000D801EE938D01232B242B252B79F790E0CA
:1011700080E0109719F0CD010E947E08A1960FB66D
:10118000F894DEBF0FBECDBFDF91CF911F910F91BD
:10119000BF90AF909F908F900895E95CE1CFCF937F
:1011A000DF930E947E08EC018AE591E00E947E08B0
:1011B0008C0F9D1FDF91CF9108950C947E08682FAE
:1011C00070E090E080E04AE00C948B08CF93DF93CE
:1011D0000E94DF08EC018AE591E00E947E088C0FF6
:1011E0009D1FDF91CF9108956F927F928F929F9272
:1011F000AF92BF92CF92DF92EF92FF920F931F9325
:10120000CF93DF93CDB7DEB760970FB6F894DEBF0C
:101210000FBECDBF3C014B015A0129833A830B839A
:101220001C83ED82FE820E94D20726E030E0AE01F0
:101230004F5F5F4F61E00E94FC066F82788689866F
:101240009A86AB86BC860E94D20726E030E0AE01CB
:10125000495F5F4F62E00E94FC06188A1F86F60114
:101260001381B280F180A5819081B481668147812C
:10127000208530E070E0FB01EE0FFF1F50E0E40F2F
:10128000F51FEE0FFF1FEE0FFF1FE20FF31FEE0F14
:10129000EE0F8F2D880F890FE80FED878A2F82952B
:1012A000807F8B0F8E87812F880F880F888BEF2D83
:1012B000F0E0EE0FFF1F7F01E90EF11CC70104E013
:1012C000B09EF00111248E0F9F1F08E0109FF001C7
:1012D00011248E0F9F1F10E1B19FF00111248E0F7A
:1012E0009F1FE0E2AE9FD00111248A0F9B1FE6E012
:1012F000660F771FEA95E1F7860F971F5695542FD3
:10130000442757954795840F951F322F2227820F28
:10131000931F20915A022817190619F10E94D2072B
:1013200024E030E0AE01435F5F4F63E00E94FC06C3
:10133000F6018781880F9681890F880F9581890F23
:10134000880F9481890F880F9381890F880F92816C
:10135000890F880F9181890F880F9081890F809361
:101360005A0260960FB6F894DEBF0FBECDBFDF9174
:10137000CF911F910F91FF90EF90DF90CF90BF9092
:10138000AF909F908F907F906F9008954F925F9253
:101390006F927F928F929F92AF92BF92CF92DF9285
:1013A000EF92FF920F931F93CF936B017C01742EEA
:1013B000AC019B010E94D519882399F08DE591E03D
:1013C000CF911F910F91FF90EF90DF90CF90BF9042
:1013D000AF909F908F907F906F905F904F900C9404
:1013E0007E0846015701E894B7F82FEF3FEF4FE72B
:1013F0005FE7C501B4010E94D51981110DC02FEF1F
:101400003FEF4FE75FE7C501B4010E9404181816CB
:101410001CF481E691E0D4CF2FEF3FEF4FE75FE47C
:10142000C701B6010E94631918161CF485E691E005
:10143000C7CF2FEF3FEF4FE75FECC701B6010E9428
:10144000041887FDF3CF20E030E0A901C701B60101
:101450000E94041810E000E087FF0AC06DE283E9F3
:1014600093E00E9449048C01F7FAF094F7F8F094A5
:10147000C0E060E070E080E09FE37C1641F020E097
:1014800030E040E251E40E940918CF5FF6CFA70197
:1014900096010E9498172B013C010E9482184B0173
:1014A0005C014AE00E948B087C01E00EF11ECC2317
:1014B000C1F1C501B4010E94B1189B01AC01C30187
:1014C000B2010E9497174B015C016EE283E993E041
:1014D0000E944904E80EF91EC15018F120E030E0E6
:1014E00040E251E4C501B4010E9468192B013C019E
:1014F0000E9482184B01B12CA12C4AE0C501B40115
:101500000E948B08E80EF91EC501B4010E94B118B3
:101510009B01AC01C301B2010E9497174B015C0112
:10152000DBCFC701CF911F910F91FF90EF90DF901C
:10153000CF90BF90AF909F908F907F906F905F9073
:101540004F900895CF92DF92EF92FF92CF93DF9367
:101550006C01990FEE08FF08F7FE19C06DE283E9F0
:1015600093E00E944904EC0166277727CB016C19B0
:101570007D098E099F094AE00E948B088C0F9D1FF0
:10158000DF91CF91FF90EF90DF90CF9008954AE0E8
:10159000C701B601DF91CF91FF90EF90DF90CF9020
:1015A0000C948B08CF93DF930E94A20AEC018AE58A
:1015B00091E00E947E088C0F9D1FDF91CF910895CE
:1015C0002F923F924F925F926F927F928F929F9253
:1015D000AF92BF92CF92DF92EF92FF920F931F9341
:1015E000CF93DF93CDB7DEB72F970FB6F894DEBF5A
:1015F0000FBECDBF8C836F8349833987288748010D
:101600008FB7F894A0902C03B0902D03C0902E03B8
:10161000D0902F038FBFE114F10421F483EEE82E64
:1016200083E0F82E2C81220F2E833981832F90E0C6
:10163000432F41954D83132F312C212C1F869B83E3
:101640008A8301E0C401B0E0A0E08A879B87AC8771
:10165000BD87AA81BB812A163B060CF01AC10093F4
:101660006F03BC81B09391031092700310929203A8
:10167000D701ED91FC910190F081E02D6F81C701C0
:10168000099581E00E9431050E9456022B013C0120
:101690008091690381116DC01E87113210F0B0E294
:1016A000BE8700936903009368032FEF20936703BD
:1016B000109266038E8581508093650300934403E6
:1016C000809144033E81832B8093440380914303A4
:1016D000813009F098C0109243030E9456022B01FA
:1016E0003C01809144038093BB0080916B039091F7
:1016F0006C03A0916D03B0916E03892B8A2B8B2B09
:10170000A1F00E94560220916B0330916C0340912E
:101710006D0350916E0364197509860997092617A0
:1017200037074807590708F445C08091BC0083FD7E
:10173000D8CF45EC4093BC000E9456022B013C01DF
:1017400080916903813009F462C0809166039E85AF
:10175000891718F4A0916603AE87E5E4F3E0A8EBDF
:10176000B2E080E02E85821751F191919D938F5FB9
:10177000F9CF80916B0390916C03A0916D03B091B0
:101780006E03892B8A2B8B2B09F482CF0E94560281
:1017900020916B0330916C0340916D0350916E0367
:1017A00064197509860997092617370748075907E5
:1017B00008F06ECF80916A030E9410051E86109279
:1017C000F1023E853093F002D701ED91FC91008447
:1017D000F185E02DC7010995892B09F453C08114C7
:1017E0009104B9F5D701ED91FC910284F385E02DC8
:1017F000C7010995E885F985BF85EB0FF11D808349
:10180000BF5FBF87E1CF55EE5093BC0095CF80916D
:101810006B0390916C03A0916D03B0916E03892BC3
:101820008A2B8B2B09F48CCF0E94560220916B03DC
:1018300030916C0340916D0350916E0364197509EA
:1018400086099709261737074807590708F078CF00
:10185000B1CF2FB7F89480912C0390912D03A091D4
:101860002E03B0912F032FBF8A199B09AC09BD0924
:101870002A853B854C855D8582179307A407B507AC
:1018800008F4B0CF4A815B81240E351E5D81150FAF
:10189000E0CE81149104E1F02FB7F89480912C03ED
:1018A00090912D03A0912E03B0912F032FBF8A1981
:1018B0009B09AC09BD09B12CA12C88159905AA0575
:1018C000BB0530F08F859981891710F4AFEFAF8792
:1018D0008F852F960FB6F894DEBF0FBECDBFDF9178
:1018E000CF911F910F91FF90EF90DF90CF90BF901D
:1018F000AF909F908F907F906F905F904F903F90B0
:101900002F9008958F929F92AF92BF92CF92DF92C5
:10191000EF92FF920F931F93CF93DF934C015B01E4
:101920006A01CFEED3E0E980FA8008EE13E022EFFF
:1019300033E046E063E488810E94E00A8B819C8169
:10194000982789279827F401918380838D819E8130
:10195000982789279827F501918380838F8198851F
:10196000982789279827F60191838083DF91CF916B
:101970001F910F91FF90EF90DF90CF90BF90AF90AD
:101980009F908F9008957F928F929F92AF92BF9277
:10199000CF92DF92EF92FF920F931F93CF93DF933B
:1019A00000D0CDB7DEB7A82E962E742E822EB02E84
:1019B00008EE13E09E012E5F3F4F41E00E94E00AD7
:1019C0008823C1F1872D8819990BAC014F5F5F4FB8
:1019D00081E090E002C0880F991F8A94E2F7019796
:1019E000042E01C0880F0A94EAF72B2D01C0220FA4
:1019F0004A95EAF7B82EB0949A81B92282238B29AE
:101A00008A8389839701AE014F5F5F4F692D8A2DCD
:101A10000E9421060F900F90DF91CF911F910F919F
:101A2000FF90EF90DF90CF90BF90AF909F908F90FE
:101A30007F90089580E0EECFEF92FF920F93EFEE4C
:101A4000F3E080E090E0A0E8B8E3858B968BA78B6D
:101A5000B08FE180F28000E022E044E06CE1808120
:101A60000E94C30C0F91FF90EF900895EF92FF92A8
:101A70000F93EFEEF3E080E090E0AAEFBBE3818FFD
:101A8000928FA38FB48FE180F28000E022E044E0E7
:101A90006BE180810E94C30C0F91FF90EF9008953D
:101AA00085ED8093BC0080916B0390916C03A091B5
:101AB0006D03B0916E030796A11DB11D23E0B6958D
:101AC000A795979587952A95D1F72091BC0024FD7D
:101AD00003C010926903089540916B0350916C0309
:101AE00060916D0370916E03452B462B472B69F374
:101AF0000097A105B10541F02AE22A95F1F700C04F
:101B00000197A109B109E1CF80916A030C941005F6
:101B10001F920F920FB60F9211242F933F938F9322
:101B20009F93AF93BF9380912C0390912D03A0912D
:101B30002E03B0912F0330912B0323E0230F2D3779
:101B400058F50196A11DB11D20932B0380932C0302
:101B500090932D03A0932E03B0932F038091300315
:101B600090913103A0913203B09133030196A11DEE
:101B7000B11D8093300390933103A0933203B0934F
:101B80003303BF91AF919F918F913F912F910F9010
:101B90000FBE0F901F90189526E8230F0296A11DE7
:101BA000B11DD2CF1F920F920FB60F9211248F93B7
:101BB0009F938091E1009091E100937F9093E100E9
:101BC00083FF0FC01092E90091E09093EB00109218
:101BD000EC0092E39093ED001092350398E090931F
:101BE000F00082FF22C093E09093E9009091F20010
:101BF000992319F09AE39093E8009091E9029923D0
:101C000041F09091E90291509093E902911101C045
:101C10005D9890913403992341F090913403915051
:101C200090933403911101C0289884FF18C08091CB
:101C3000E2008E7E81608093E2008091E1008F7EE1
:101C40008093E1008091EA028E7E80618093EA02B7
:101C50009F918F910F900FBE0F901F90189580FF4E
:101C6000F7CF8091E2008E7E80618093E2008091C8
:101C7000E1008E7E8093E1008091EA028E7E816099
:101C8000E5CF1F920F920FB60F921124CF92DF92E1
:101C9000EF92FF920F931F932F933F934F935F9376
:101CA0006F937F938F939F93AF93BF93EF93FF9324
:101CB000CF93DF93CDB7DEB76C97DEBFCDBF109269
:101CC000E9008091E80083FF25C068E0CE014596D9
:101CD0000E94E10382EF8093E8008D8987FF39C07D
:101CE0009091E80090FFFCCF982F907609F034C1D6
:101CF0009E894F89588D2F89F88C911131C0803879
:101D000061F58091EB028093F1001092F1008EEF6B
:101D10008093E8006C960FB6F894DEBF0FBECDBF7F
:101D2000DF91CF91FF91EF91BF91AF919F918F91F3
:101D30007F916F915F914F913F912F911F910F91E3
:101D4000FF90EF90DF90CF900F900FBE0F901F90FD
:101D500018959EEF9093E800C7CF1092F100D5CF71
:101D6000913059F48111D3CF4130510581F68091E2
:101D7000EB028D7F8093EB02CACF933049F481113F
:101D8000C6CF4130510519F68091EB028260F2CF47
:101D9000953041F48091E80080FFFCCF20682093CB
:101DA000E300B5CF963009F0A9C00B8D1C8D22E061
:101DB0001092E9001092E7021092E602F2122EC091
:101DC0001092E5021092E4020E9402041F8299E040
:101DD0009983FA8291E09E8390EA98879AEF998797
:101DE0002091E6023091E702275F3F4F3C832B832F
:101DF0008D831092E9001092E7021092E602109390
:101E0000E5020093E40249E050E0BE016F5F7F4FBE
:101E100080E00E9410030E94020479CF1093E50233
:101E20000093E4020E94EE03DC0112960D911C91D6
:101E30000115110509F451C1D801ED91FC910480FF
:101E4000F581E02DBE016B5E7F4FC80109950097BB
:101E500009F03EC1F80100851185EACFF3E0FF12D9
:101E60000EC08F89882309F440C0823061F440E8B5
:101E700060E188E191E00E94DD02811148CF81E2BA
:101E80008093EB0047CF813029F440E867E080E1A0
:101E900091E0F1CF833099F70E94EE03DC011296B6
:101EA000ED90FC908E010F5F1F4F6801E114F1046B
:101EB00079F0D701ED91FC910680F781E02DB80112
:101EC000C7010995080F111DF701E084F184EECFD9
:101ED000D8011C92F60101900020E9F73197BF016B
:101EE0006C197D0940E0C601C6CF6AEF70E0FB01C6
:101EF000449150E080E80E94100309CF973009F424
:101F0000BECF983021F481E08093F10000CF99306A
:101F100009F0FDCE837009F0B2CFE1E0F1E081E09D
:101F200031E096E32191222371F08093E900309310
:101F3000EB00DF0111972C912093EC009093ED00C2
:101F40008F5F873079F78EE78093EA001092EA007E
:101F50008F8980933503DBCE8B8D9C8D1092E900A9
:101F60001092E7021092E6029093E5028093E40259
:101F7000898D811192C08E899D89913A49F481326F
:101F800009F07DCF47E050E06BE071E080E0B3CF37
:101F9000913209F074CF833269F48F89988DB0E063
:101FA000A0E08093070190930801A0930901B093EA
:101FB0000A01ADCE803269F48091E80082FFFCCF47
:101FC00067E08BE091E00E94E1038BEF8093E800F3
:101FD0009ECE823209F09BCE8F8980931201EEEF64
:101FE000FFE7859194918B3F9C4D51F1E0E0F8E043
:101FF00080910B0190910C01A0910D01B0910E0107
:10200000803B9440A105B105F1F48091120180FD5F
:102010001AC0EE3F8AE0F80789F587E797E79183D2
:102020008083809160008093E80288E19BE00FB696
:10203000F894A895809360000FBE9093600067CEDF
:10204000EEEFFAE0D5CF808191818737974709F08D
:102050005ECEA89580916000886180936000809139
:10206000E80280936000EE3F2AE0F20789F0809159
:10207000FE0A9091FF0A9183808349CE80819181ED
:102080008737980751F29093FF0A8093FE0AC5CFD5
:102090001092FF0A1092FE0A3ACE0E94EE03DC0173
:1020A00012960D911C910115110509F4E8CED80185
:1020B000ED91FC910190F081E02DBE016B5E7F4FB0
:1020C000C8010995811123CEF80100851185EBCF58
:1020D000181619060CF41BCED2CEF1E0FF12BECEBC
:1020E0006EEF70E004CF1F920F920FB60F92112483
:1020F0002F933F934F935F936F937F938F939F9310
:10210000AF93BF93EF93FF938091B900887F8036A0
:1021100009F44AC0F0F5883209F4A7C018F58031F7
:1021200009F49BC0B8F4882309F4F9C0883009F495
:1021300094C0FF91EF91BF91AF919F918F917F914B
:102140006F915F914F913F912F910F900FBE0F9024
:102150001F901895883109F488C0803251F7809318
:10216000670314C0803409F49DC040F48033B9F390
:102170008833F9F68093670385ECB0C0803509F4A5
:1021800085C0883509F496C0883499F60E94500DB0
:10219000D0CF883909F48CC038F5883729F050F44D
:1021A000883611F0803729F683E080936903109216
:1021B000B70257C0883809F47BC0803919F08038DD
:1021C00009F0B7CF8091B702803208F071C0E0917A
:1021D000B70281E08E0F8093B7028091BB00F0E0E0
:1021E000E956FD4F80833DC0803B39F0E0F4803AF2
:1021F00009F479C0883A09F09CCF84E080936903A0
:102200001092960210929502E091EE02F091EF0288
:1022100009958091950281110FC081E0809395020C
:102220001092750209C0803C09F4A6CF883C09F4DD
:10223000A3CF883B09F07DCFE091960281E08E0F1D
:1022400080939602F0E0EB58FD4F80818093BB00B5
:10225000909196028091950229C0809144038093C9
:10226000BB0085EC8093BC0064CF909166038091A5
:102270006503981758F5E091660381E08E0F80930F
:102280006603F0E0EB5BFC4F8081E9CFE0916603F1
:1022900081E08E0F809366038091BB00F0E0EB5BE2
:1022A000FC4F808390916603809165039817C8F274
:1022B00085E8D8CFE091660381E08E0F80936603B6
:1022C0008091BB00F0E0EB5BFC4F80838091680362
:1022D00081115CCF81E08093430384EA8093BC004A
:1022E0001092690326CF85EC8093BC00109269039D
:1022F0008091B702803230F4E091B702F0E0E95605
:10230000FD4F10826091B70270E0E091EC02F09115
:10231000ED0287E992E009951092B7020ACF109278
:10232000670334CFE3E9F3E01382128288EE93E08F
:10233000A0E0B0E084839583A683B7832AE331E0ED
:10234000318320832FEF3FEF35872487E3EEF3E0DF
:102350001382128284839583A683B7838CE491E0F1
:1023600091838083EFEEF3E088E68083128211820E
:1023700088EF9AE2A0E0B0E0818B928BA38BB48BC4
:102380000895CF93DF93CDB7DEB7C654D1090FB60A
:10239000F894DEBF0FBECDBF789484B5826084BD53
:1023A00084B5816084BD85B5826085BD85B5816059
:1023B00085BD80916E00816080936E0010928100D7
:1023C0008091810082608093810080918100816092
:1023D0008093810080918000816080938000809153
:1023E0009100826080939100809191008160809340
:1023F0009100809190008160809390008091C10055
:1024000084608093C1008091C10082608093C1008C
:102410008091C10081608093C1008091C300816080
:102420008093C3008091C00082608093C00080913F
:10243000C20081608093C20080917A0084608093A2
:102440007A0080917A00826080937A0080917A008D
:10245000816080937A0080917A00806880937A000E
:10246000109235031092EB021092EA028091D7008D
:1024700081608093D70080EA8093D80089B580611D
:1024800089BD89B5826089BD09B400FEFDCF61E0D8
:1024900070E080E090E00E947B028091D8008F7C09
:1024A00080618093D8008091E000807F8093E0007D
:1024B0008091E1008E7E8093E1008DE08093E200C8
:1024C000559A209A5D9828988091F802811113C03E
:1024D0001092F3021092F20287E391E09093F502DA
:1024E0008093F40286E590E09093F7028093F602E1
:1024F00081E08093F8020E94D207FC01A385B48595
:10250000109709F007C282EF92E094878387858550
:1025100096852091F6023091F702820F931F9687DD
:1025200085878FEF9FEF9093A00380939F0364E6CE
:1025300070E080E090E00E947B021092F102109225
:10254000F00210927003109292030E94F2048DEA3E
:1025500092E09093EF028093EE028EEA92E09093E5
:10256000ED028093EC02E090F003F090F10301E0C3
:1025700023E042E06BE68091EF030E94C30C0E94CF
:10258000360D0E941C0DA090F003B090F103D09086
:10259000EF03750108EE13E09E012F5F3F4F41E00E
:1025A0006BE68D2D0E94E00A89818F7B89838EA73F
:1025B0009501AE01425D5F4F6BE68D2D0E942106B5
:1025C00062E370E080E090E00E947B02E090F00324
:1025D000F090F1039E012F5F3F4F41E065E780914E
:1025E000EF030E94E00A882339F089818E7790E01A
:1025F000959587958093F2038091F203843309F0D7
:1026000093C181E0809342030E94360D0E941C0D0D
:1026100089E691E00E94CF0880914203882309F463
:10262000B8C08DEA91E00E94CF0804E610E0C12C0A
:10263000D12C76014601570126013701AE014F5FCB
:102640005F4FBE016F5E7F4FCE0181960E94820C6C
:1026500069A17AA1072E000C880B990B0E94B31870
:102660009B01AC01C301B2010E9498172B013C01F0
:1026700069897A89072E000C880B990B0E94B31880
:102680009B01AC01C501B4010E9498174B015C018C
:1026900069817A81072E000C880B990B0E94B31870
:1026A0009B01AC01C701B6010E9498176B017C0128
:1026B00064E170E080E090E00E947B02015011092B
:1026C00009F0BCCF20E030E048EC52E4C301B20195
:1026D0000E9409182B013C0140920B0350920C03FD
:1026E00060920D0370920E0320E030E048EC52E45B
:1026F000C501B4010E94091860930F037093100381
:10270000809311039093120320E030E048EC52E4F0
:10271000C701B6010E940918609313037093140354
:10272000809315039093160385EE91E00E94DD08D7
:1027300042E0C301B2010E94C6098AE092E00E9411
:10274000DD0860910F037091100380911103909147
:10275000120342E00E94C6098AE092E00E94DD086E
:1027600060911303709114038091150390911603E7
:1027700042E00E94C6098AE591E00E947E080E941C
:102780005602609327037093280380932903909344
:102790002A0326E331E080E391E021969FAF8EAFDC
:1027A00021972196AEADBFAD21978D919D91219638
:1027B000BFAFAEAF21979927FC01E853FE4F44917C
:1027C00087559E4FFC0184918823C9F090E0880FC3
:1027D000991FFC01E75DFE4FA591B491FC01E55600
:1027E000FE4F659174919FB7F8945C91842F80950A
:1027F00085238C93DB01EC914E2B4C939FBF21964C
:10280000EEADFFAD21972E173F0709F0CACF83E049
:102810008093130187E193E00E94440868EE73E01F
:1028200080E090E00E947B0287E193E00E944408F0
:1028300087E193E00E9444089E012F5E3F4F38AB32
:102840002FA7CE0141960E9444087E0132E2E30E9A
:10285000F11C00E311E0D8012D913D918D0133274A
:10286000F901E951FE4F8491F901E853FE4FD490EC
:10287000F901E755FE4FC490CC2009F460C08111E6
:102880000E94DC01EC2DF0E0EE0FFF1FE357FE4F3E
:10289000A591B491EC91DE2231E020E009F430E022
:1028A000832F922FB1E08B27F70181937F0121962F
:1028B0002EAD3FAD21972017310709F0CCCF19A6D7
:1028C00018A61FA21EA21DA219A22FB7F8948091CC
:1028D0002C0390912D03A0912E03B0912F032FBFB5
:1028E0008093070390930803A0930903B0930A030E
:1028F000E0910603E73008F093C0F0E0EE57FB4E9E
:102900000C94EE19A214BB14E414EC142C17471702
:102910005117DC018D919C9111970097D1F782EFAF
:1029200092E08D939C93F3CD8C3009F46ACE8A3378
:1029300009F467CE109242038EE791E06BCE90E0EF
:1029400080E0B0CF2AA1211107C02CA1211104C021
:102950002BA1222309F464C021E020930603809375
:10296000020390930303A0930403B09305031BA2F7
:102970001CA21AA255C0409102035091030360911A
:10298000040370910503841B950BA60BB70B4597A9
:10299000A105B10520F083E080930603E8CF8AA16A
:1029A000882351F08CA1882311F082E0F5CF8BA110
:1029B000882311F085E0F0CF8BA18823C1F28CA190
:1029C0008823A9F286E0E8CF81E089A384E08093A0
:1029D000060310920103CCCF84E0809306038AA102
:1029E000882321F081E0809301031AC08BA1882302
:1029F00009F430C220910003822F90E0E7E2F0E07A
:102A0000EC0FFD1FE80FF91F31E030832A5F2093A0
:102A10000103019663E070E00E94DA1980930003DD
:102A20000E94560260932703709328038093290322
:102A300090932A0380914203882309F439C2AE019E
:102A40004F5F5F4FBE01665D7F4FCE018C960E9447
:102A5000820C6CA57DA5072E000C880B990B0E949B
:102A6000B31820910B0330910C0340910D0350914A
:102A70000E030E94971720E030E043E053E40E94E9
:102A800009186B017C016AA57BA5072E000C880B39
:102A9000990B0E94B31820910F03309110034091BD
:102AA0001103509112030E94971720E030E043E099
:102AB00053E40E9409184B015C0169817A81072E59
:102AC000000C880B990B0E94B318209113033091CE
:102AD000140340911503509116030E94971720E0AC
:102AE00030E043E053E40E9409182B013C0167E108
:102AF000262E63E0362EAE014F5E5F4FFE0131960B
:102B000067E273E09F01D1018D919D911D01DA0172
:102B10000D911D91AD01801B910BD9018D939D935A
:102B20009D016215730579F7808191818C33910540
:102B30000CF0C6C1853CBFEF9B070CF4D3C11182DA
:102B4000108232962FA538A92E173F0769F78B817F
:102B50009C819CAF8BAFA981BA81BEAFADAFE98537
:102B6000FA85FAABE9AB2B853C853CAB2BAB8A1BDA
:102B70009B0B8E0F9F1F821B930B97FD0196DC0111
:102B8000B595A7952396BFAFAEAF2397ED81FE8194
:102B9000FEABEDAB2F81388538AF2FAB2F84388853
:102BA0008D859E859AAF89AFCF01821B930B820DD5
:102BB000931DA9ADBAAD8A1B9B0B97FD0196FC0135
:102BC000F595E7952596FFAFEEAF25974BAD5CAD3C
:102BD0002DAD3EAD420F531F0DA91EA9040F151FA9
:102BE0008FA998AD080F191FA9A9BAA90A0F1B1F11
:102BF000EBA9FCA90E0F1F1F29AD3AAD020F131F41
:102C0000020D131D17FF02C00D5F1F4F159507958D
:102C10001595079589A99AA9481B590BABA9BCA979
:102C20004A1B5B0B57FF02C04F5F5F4F559547959F
:102C300030E020E0C701B6010E942E0127969FAF29
:102C40008EAF279749AD5AAD420D531DEDA9FEA990
:102C50004E1B5F0B2FA938AD421B530B57FF02C011
:102C60004F5F5F4F5595479521E030E0C501B401B6
:102C70000E942E015C014DAD5EAD8DA99EA9480F4D
:102C8000591FA9A9BAA94A0F5B1FE9ADFAAD4E0FAA
:102C90005F1F2BAD3CAD421B530B8FA998AD481B5A
:102CA000590BABA9BCA94A1B5B0B4219530957FF2F
:102CB00002C04D5F5F4F559547955595479522E06A
:102CC00030E0C301B2010E942E014C011195019523
:102CD00011098DE092E00E94DD088DAD9EAD0E944D
:102CE000A20A83E192E00E94DD0885E192E00E9461
:102CF000DD088BAD9CAD0E94A20A83E192E00E94A8
:102D0000DD088BE192E00E94DD088DA99EA90E945A
:102D1000A20A83E192E00E94DD0881E292E00E9433
:102D2000DD088FA998AD0E94A20A83E192E00E947B
:102D3000DD0887E292E00E94DD0889A99AA90E9435
:102D4000A20A83E192E00E94DD088DE292E00E94F7
:102D5000DD088BA99CA90E94A20A83E192E00E944F
:102D6000DD0883E392E00E94DD0889AD9AAD0E9400
:102D7000A20A83E192E00E94DD0889E392E00E94CA
:102D8000DD08C1010E94A20A8FE392E00E94DD08E3
:102D900082E492E00E94DD0823968EAD9FAD2397DA
:102DA0000E94A20A83E192E00E94DD0886E492E09C
:102DB0000E94DD0825968EAD9FAD25970E94A20A40
:102DC00083E192E00E94DD088AE492E00E94DD083F
:102DD000C8010E94A20A83E192E00E94DD088EE40D
:102DE00092E00E94DD0827968EAD9FAD27970E9446
:102DF000A20A83E192E00E94DD0882E592E00E944F
:102E0000DD08C5010E94A20A83E192E00E94DD086C
:102E100086E592E00E94DD08C4010E94D20AFE010C
:102E2000B1966F012596EEACFFAC259723962EAD9B
:102E30003FAD2397A401B50127968EAD9FAD27978F
:102E40000E94F40880E090E0892B09F4FACC0E94FB
:102E50000000F7CC83E0C7CD8AA1811108C08CA106
:102E6000811105C08BA1811102C0109206031BA223
:102E70001CA21AA219A2E091010381E290E08C0F3A
:102E80009D1F8E0F911DFC0181E08083C9CD81E0E3
:102E90008DA384E080930603809301031CA21BA2F0
:102EA00068CD81E08EA384E08093060385E0F4CFB3
:102EB000412C512C3201530142017301620117CEA2
:102EC00021E030E097FF03C0919581959109CC975F
:102ED000829FA001839F500D929F500D112451831A
:102EE00040832FCE2FEF3FEFEDCFA1E21A2EAA1B8A
:102EF000BB1BFD010DC0AA1FBB1FEE1FFF1FA217AA
:102F0000B307E407F50720F0A21BB30BE40BF50BA6
:102F1000661F771F881F991F1A9469F7609570952F
:102F2000809590959B01AC01BD01CF01089550584B
:102F3000BB27AA270E94AF170C9429190E941B19BE
:102F400038F00E94221920F039F49F3F19F426F43A
:102F50000C9418190EF4E095E7FB0C941219E92F64
:102F60000E943A1958F3BA17620773078407950746
:102F700020F079F4A6F50C945C190EF4E0950B2E74
:102F8000BA2FA02D0B01B90190010C01CA01A001BB
:102F90001124FF27591B99F0593F50F4503E68F116
:102FA0001A16F040A22F232F342F4427585FF3CF57
:102FB000469537952795A795F0405395C9F77EF428
:102FC0001F16BA0B620B730B840BBAF09150A1F071
:102FD000FF0FBB1F661F771F881FC2F70EC0BA0FF7
:102FE000621F731F841F48F4879577956795B7957F
:102FF000F7959E3F08F0B0CF9395880F08F099277A
:10300000EE0F9795879508950E94EE1808F481E0D9
:1030100008950E941D180C9429190E94221958F035
:103020000E941B1940F029F45F3F29F00C941219FB
:1030300051110C945D190C9418190E943A1968F3F7
:103040009923B1F3552391F3951B550BBB27AA2761
:1030500062177307840738F09F5F5F4F220F331F9B
:10306000441FAA1FA9F335D00E2E3AF0E0E832D063
:1030700091505040E695001CCAF72BD0FE2F29D066
:10308000660F771F881FBB1F261737074807AB0738
:10309000B0E809F0BB0B802DBF01FF2793585F4FAD
:1030A0003AF09E3F510578F00C9412190C945D197A
:1030B0005F3FE4F3983ED4F3869577956795B7958F
:1030C000F7959F5FC9F7880F911D9695879597F99A
:1030D0000895E1E0660F771F881FBB1F6217730713
:1030E0008407BA0720F0621B730B840BBA0BEE1F28
:1030F00088F7E09508950E9482186894B1110C94A5
:103100005D1908950E94421988F09F5798F0B92FD1
:103110009927B751B0F0E1F0660F771F881F991F0C
:103120001AF0BA95C9F714C0B13091F00E945C1939
:10313000B1E008950C945C19672F782F8827B85F49
:1031400039F0B93FCCF3869577956795B395D9F764
:103150003EF490958095709561957F4F8F4F9F4F6E
:103160000895E89409C097FB3EF49095809570957A
:1031700061957F4F8F4F9F4F9923A9F0F92F96E9C3
:10318000BB279395F695879577956795B795F11138
:10319000F8CFFAF4BB0F11F460FF1BC06F5F7F4FD5
:1031A0008F4F9F4F16C0882311F096E911C07723E7
:1031B00021F09EE8872F762F05C0662371F096E8F0
:1031C000862F70E060E02AF09A95660F771F881FBF
:1031D000DAF7880F9695879597F90895990F000863
:1031E000550FAA0BE0E8FEEF16161706E807F907D9
:1031F000C0F012161306E407F50798F0621B730B74
:10320000840B950B39F40A2661F0232B242B252BF4
:1032100021F408950A2609F4A140A6958FEF811D97
:10322000811D089597F99F6780E870E060E0089538
:103230009FEF80EC089500240A94161617061806CE
:103240000906089500240A941216130614060506AA
:103250000895092E0394000C11F4882352F0BB0F3B
:1032600040F4BF2B11F460FF04C06F5F7F4F8F4F9E
:103270009F4F089557FD9058440F551F59F05F3FD9
:1032800071F04795880F97FB991F61F09F3F79F088
:1032900087950895121613061406551FF2CF46950A
:1032A000F1DF08C0161617061806991FF1CF86958C
:1032B0007105610508940895E894BB276627772770
:1032C000CB0197F908950E94EE1808F48FEF089546
:1032D0000E947B190C9429190E941B1938F00E9436
:1032E000221920F0952311F00C9412190C9418193E
:1032F00011240C945D190E943A1970F3959FC1F343
:10330000950F50E0551F629FF001729FBB27F00D93
:10331000B11D639FAA27F00DB11DAA1F649F6627E8
:10332000B00DA11D661F829F2227B00DA11D621F37
:10333000739FB00DA11D621F839FA00D611D221FF1
:10334000749F3327A00D611D231F849F600D211DD5
:10335000822F762F6A2F11249F5750409AF0F1F058
:1033600088234AF0EE0FFF1FBB1F661F771F881FC1
:1033700091505040A9F79E3F510580F00C941219CE
:103380000C945D195F3FE4F3983ED4F386957795EE
:103390006795B795F795E7959F5FC1F7FE2B880F67
:1033A000911D9695879597F908950E94EE18880BC0
:1033B000990B089597FB072E16F4009407D077FD1C
:1033C00009D00E94F41907FC05D03EF49095819530
:1033D0009F4F0895709561957F4F0895EE0FFF1FE1
:1033E0000590F491E02D0994AA1BBB1B51E107C085
:1033F000AA1FBB1FA617B70710F0A61BB70B881F85
:10340000991F5A95A9F780959095BC01CD01089513
:04341000F894FFCF5E
:1034140000C18081000000FFFFFFFF00E100000009
:103424000000000112001300140015001800190018
:103434001A001B0000000000D90687074C0731075B
:1034440000000100020000000000490433046A0483
:103454005F04B1046F048D0400000000A7067A061F
:10346400D60650067306600651060D0A006E616E9C
:1034740000696E66006F7666004D50552D36303506
:103484003020696E697469616C697A6564004D50B5
:10349400552D36303530206E6F7420646574656345
:1034A4007465642E2052756E6E696E672048616C77
:1034B4006C2D6F6E6C79206D6F64652E0053746192
:1034C4007274696E67206779726F2063616C6962D8
:1034D400726174696F6E2028686F6C6420737469FC
:1034E4006C6C20666F722032207365636F6E647338
:1034F400292E2E2E004779726F2063616C696272E7
:103504006174696F6E20636F6D706C6574652E20D5
:103514004F6666736574733A20002C200048455347
:10352400303A002C00484553313A00484553323A6A
:1035340000484553333A00484553363A004845530A
:10354400373A00484553383A00484553393A007CE5
:103554007C0054583A0054593A00545A3A0052588C
:0A3564003A0052593A00525A3A0058
:00000001FF
